:100000000C94BD040C94F5040C94F5040C94F504C4
:100010000C94F5040C94F5040C94F5040C94F5047C
:100020000C94F5040C94F5040C94C12C0C947D2CC8
:100030000C94C52D0C94F5040C94F5040C94F50463
:100040000C94F5040C94F5040C94F5040C94F5044C
:100050000C94F5040C94A12D0C94F5040C94F50467
:100060000C94F5040C94F5040C94F5040C94F5042C
:100070000C94F5040C94F5040C94F5040C94F5041C
:100080000C94F5040C94F5040C94F5040C94F5040C
:100090000C94F5040C94F5040C94F5040C94F504FC
:1000A0000C94F5040C94F5040C94F5040501090274
:1000B000A10185020901A100050919012905150001
:1000C00025019505750181029501750381010501E1
:1000D000093009311581257F950275088106093897
:1000E0001581257F950175088106050C0A380215D2
:1000F00081257F950175088106C0C005010980A191
:1001000001850319012AB700150126B7009501756D
:10011000108100C0050C0901A101850419012AA064
:1001200002150126A002950175108100C005010984
:1001300006A1018506050719E029E71500250195A7
:1001400008750181020507190029EF1500250195A1
:10015000F0750181020508190129059505750191C0
:1001600002950175039101C00660FF0961A10109B3
:1001700062150026FF0095207508810209631500AD
:1001800026FF00952075089102C005010906A1010E
:10019000050719E029E71500250195087501810279
:1001A0009501750881010507190029FF150026FF33
:1001B0000095067508810005081901290595057542
:1001C000019102950175039101C00103E10103E270
:1001D000000102E10102E20000047F3F1F643214CB
:1001E000643214783C1E1E140A05FD377A585A00F2
:1001F0000004E6D6B4460200210116000000742F68
:10020000E5A3E003E301615D003D8889C65436C380
:10021000174FE4E2A55FD4C61CAB80CC033F9936F0
:10022000B090753903538311D55DD18AAF384149F8
:1002300066B75D80BB62FEF3251FB67F9D1A2E84D4
:100240006C1523A38E41E7BF73D0E8E1E93D2EE1B1
:100250005B567F8D3E2CBBF4E4105F670EB7FF55F5
:1002600047B071D542005497B71046CFA0751133EF
:10027000CE502A5C6B1F7D16D978256760B024AC00
:1002800022E032428C4B52E956E57656281E3D4418
:100290008843D7405445FE12C284259722266131F7
:1002A0004609605805AEB508E2495BFAB5C78AFA57
:1002B00019EEC5E56284E22023086BE0D6BB321359
:1002C0000772D42402204D978CEF9FD03CFFBB0DCA
:1002D000F63F0FDB9343AC9DE94E29D62685DD7FA3
:1002E000F8EFCAF40AE31649392F6E9AFDB7D676AD
:1002F000E684815B94213012C24593C26BB6C21F63
:10030000063CE5058BF5A893B9E3A733B7CB1F4AA5
:10031000F53540A5414B04D8346B1E02E73C8F5F96
:1003200021E2E87A6112ED9B13FE8DDF09FA885D08
:10033000EC86B31971D380A04E8F7C9516CB4060AC
:10034000591A83BBD855358F0C2E0AB6F5150F8E6A
:10035000CD1C9EA8C5AB0CD43BCD1287A202A6DB58
:10036000A287EAB04A77B4E5CE00000000000FCCC7
:10037000C106CD1219E30001FD02E4070000904D13
:10038000CB4CB1C467FB020000000004595A0001C5
:100390000101010101010101020202020202020245
:1003A0000203030303030303030404040404040417
:1003B00005050505050606060606070707070708DB
:1003C000080808090909090A0A0A0B0B0B0C0C0C8E
:1003D0000D0D0D0E0E0E0F0F0F1010111111121228
:1003E00013131414151516161717181819191A1AA5
:1003F0001B1B1C1D1D1E1E1F202021222223242406
:10040000252626272829292A2B2C2D2D2E2F303141
:100410003232333435363738393A3B3C3D3E3F4053
:100420004142434445464748494A4C4D4E4F50513E
:100430005354555658595A5B5D5E5F6162646566F8
:1004400068696B6C6D6F7072737577787A7B7D7E7F
:100450008082838587888A8C8E8F91939596989ACF
:100460009C9EA0A2A3A5A7A9ABADAFB1B3B5B7BAE7
:10047000BCBEC0C2C4C6C9CBCDCFD1D4D6D8DBDDBB
:10048000DFE2E4E7E9EBEEF0F3F5F8FAFDFFFFAAAF
:100490007F55402223252628292A2C2D2F30323320
:1004A0003536383A3B3D3E4042434547494A4C4E3B
:1004B0005051535557595A5C5E6062646668696B67
:1004C0006D6F71737577797B7D7F81838587898A6D
:1004D0008C8E90929496989A9C9E9FA1A3A5A7A873
:1004E000AAACAEAFB1B3B4B6B8B9BBBCBEBFC1C2A3
:1004F000C3C5C6C7C9CACBCCCDCED0D1D2D2D3D436
:10050000D5D6D7D7D8D9D9DADADBDBDBDCDCDCDC53
:10051000DCDDDDDDDDDCDCDCDCDCDBDBDBDADAD921
:10052000D9D8D7D7D6D5D4D3D2D2D1D0CECDCCCBA3
:10053000CAC9C7C6C5C3C2C1BFBEBCBBB9B8B6B4C1
:10054000B3B1AFAEACAAA8A7A5A3A19F9E9C9A9851
:10055000969492908E8C8A89878583817F7D7B7922
:10056000777573716F6D6B6968666462605E5C5A03
:100570005957555351504E4C4A4947454342403EC6
:100580003D3B3A3836353332302F2D2C2A29282658
:100590002523222B0014001A000900130005000D6A
:1005A000000F0018001C0033002A00296104001508
:1005B00000160017000A000E00110008000C0012BF
:1005C00000287202551B000600070019001D0010CC
:1005D000000B00360037003800340050420153E36E
:1005E0000028430000000000002C415174527800A4
:1005F000004F7135001E001F002000210022002343
:1006000000240025002600270001002B00260227D9
:10061000022F00300001002E021E001F00200025C6
:100620000201000100010001000000010001002D95
:10063000002E00010001000100F90001000100018D
:100640000027000000000000002C00FB00FA000062
:1006500000FC00F500000000000000000000004B5E
:10066000004A0052004D0033022A1401000000002D
:100670000000002A0000004E00500051004F0028EA
:10068000000714010000000000000000000000F45A
:100690000050144F14F0000514091401000100016A
:1006A000004C040000000000004C00F200F10000CB
:1006B00000F30035021E021F022002210222022343
:1006C000022402000000000100010039002F023066
:1006D000022602270200002E0221023102310034DC
:1006E000020100000077004800AA00A900A8002D20
:1006F000002E0036023702380201000100005C00C3
:100700000000000000000000002D020100010000B8
:10071000000100010001002503AD12E012000002FB
:100720000002002103AD12E01200000300010026C8
:1007300003AD12E0120000040002000B03AD12E052
:1007400012DE07050001002703AD12E012000006CB
:100750000002000D03AD12E01200000700020023AA
:1007600003AD12E0120000080001002803AD12E002
:10077000120000090002000F03AD12E012B9070ACF
:100780000002001103AD12E012B9070B00020013C2
:1007900003AD12E012B9070C0002001503AD12E020
:1007A00012B9070D0002001703AD12E012B9070ECF
:1007B0000002001903AD12E012B9070F0002001B7E
:1007C00003AD12E012B907100002001D03AD12E0E4
:1007D00012B907110002001F03AD12E012B907128F
:1007E0000002002903AD12E0120000130002002BEA
:1007F00003AD12E0120000140001002D03AD12E061
:100800001200001500000000003D07381A0000002B
:1008100000000000000000000000000000000000D8
:1008200000000000000000000000000000000000C8
:100830000000007E0F00D4FFFFFFC700000078001B
:10084000000000000000002A2B280000000000002B
:100850000000000000000000000029000000002C43
:100860001E3420212224342627252E362D373827E2
:100870001E1F202122232425263333362E37381FEE
:100880000405060708090A0B0C0D0E0F10111213B0
:100890001415161718191A1B1C1D2F3130232D354E
:1008A0000405060708090A0B0C0D0E0F1011121390
:1008B0001415161718191A1B1C1D2F3130354C0929
:1008C000025B00030100A0320904000001030101E2
:1008D00000092111010001224000070581030800E1
:1008E00001090401000203000000092111010001B7
:1008F00022220007058203200001070503032000D0
:100900000109040200010300000009211101000196
:1009100022BC000705840320000112010002000030
:100920000008AEFE47880100010203011C037600A7
:10093000690061006C003A00660036003400630014
:100940003200620033006300000010034D006900B4
:100950006E006900760061006E000000180345001B
:10096000760061006E0020005300610069006C0099
:100970006500720000000403090411241FBECFEFBC
:10098000DAE0DEBFCDBF04B603FE18C080912B04B1
:1009900090912C04A0912D04B0912E048730904B9F
:1009A000A740B04B59F410922B0410922C041092D3
:1009B0002D0410922E04E0E0F8E3099511E0A0E088
:1009C000B1E0ECE3FFE602C005900D92A63AB10754
:1009D000D9F724E0A6EAB1E001C01D92AB32B2071C
:1009E000E1F70E94E82D0C9437370C940000E8EDF5
:1009F000F0E080818E7F80831092E2001092DA0016
:100A00001092E100A0EEB0E08C9181608C93808127
:100A10008F77808319BCA7EDB0E08C918E7F8C938B
:100A200080818F7E80831092EA0308952091E400F4
:100A30003091E50095E6A9012091EC00822F8170AC
:100A400020FF06C08091E80080FF06C080E0089586
:100A50002091E80022FD1AC080911D04882389F0AE
:100A6000853089F08091EB0085FD0FC02091E40076
:100A70003091E50042175307F9F29150E1F684E016
:100A8000089582E0089583E0089581E00895EF924B
:100A9000FF920F931F93CF937C018B010E94160549
:100AA000C82F811117C08091E80085FD0BC080918F
:100AB000E8008E778093E8000E941605882399F35A
:100AC000C82F08C0F70181917F018093F100015088
:100AD000110949F78C2FCF911F910F91FF90EF9043
:100AE0000895CF9320911D042430F9F4C091E900BA
:100AF000CF703091EC00232F217030FD20E8C22B05
:100B000022E02093E9002091E80020FF0BC050E094
:100B100040E060E270E00E9447058091E8008E7737
:100B20008093E800CF70C093E900CF910895809141
:100B3000150487FF13C08091E80082FF06C08091F2
:100B4000E8008B778093E80004C080911D04811138
:100B5000F2CF089580911D048823D9F38091E80095
:100B600080FFF8CF8091E8008E77ECCF982F90939C
:100B7000E900242F762F50E0891731F07091EC00B6
:100B80002091ED005091F00021FD07C09F5F97304C
:100B900071F78093E90081E008953091EB003E7F8A
:100BA0003093EB003091ED003D7F3093ED003091BC
:100BB000EB0031603093EB007093EC002093ED007C
:100BC0005093F0002091EE0027FDE0CF80E00895E3
:100BD000B0E0A0E0EEEEF5E00C946B36C8EDD0E0AE
:100BE00088818F7E8883E7EDF0E08081816080835B
:100BF00084E082BF81E08093EA0388818E7F8883CE
:100C000002EE10E0F80110821092DA0081EEC82E98
:100C1000D12CF601108288818F7788838881806843
:100C2000888388818F7D888319BC10921D0410925F
:100C30001404109213041092120490EEE92EF12C79
:100C4000F70180818B7F808388818160888342E087
:100C500060E080E00E94B605F60180818E7F80838F
:100C6000F801808181608083808188608083F701C2
:100C700080818E7F8083888180618883CDB7DEB755
:100C8000E8E00C948736FC01CB0120911B043091E5
:100C90001C042617370790F0009729F42091E800EC
:100CA0002E772093E80040E0009751F4411108C0EE
:100CB0008091E80082FF31C080E00895C901F3CF40
:100CC00020911D042223A9F12530A9F12091E800EB
:100CD00023FD2DC02091E80022FDEACF2091E800FD
:100CE00020FFE2CF3091F3002091F200009719F03D
:100CF0002830310558F041E02830310509F040E056
:100D00002091E8002E772093E800CECF41914093C8
:100D1000F10001972F5F3F4FE9CF80911D04882399
:100D200041F0853041F08091E80083FFC1CF81E040
:100D3000089582E0089583E0089508958091F10375
:100D400008959C014FB7F8948091E1039091E203DC
:100D5000A091E303B091E4034FBF821B930B08956E
:100D60002FB7F8948091E1039091E203A091E303FF
:100D7000B091E4032FBF08952091DF033091E00389
:100D80002817390771F09093E0038093DF03E09117
:100D9000DD03F091DE03309721F00084F185E02D32
:100DA000099508952091DB033091DC03281739075A
:100DB00071F09093DC038093DB03E091DD03F0910D
:100DC000DE03309721F00680F781E02D0995089524
:100DD000E091DD03F091DE03309729F00190F0817E
:100DE000E02D0995089580E00895452B39F068239A
:100DF00081E06F3F09F080E08170089581E0FCCFD1
:100E0000AC013091D7036091D803232F621301C046
:100E10000895822F90E0FC01EE0FFF1FE153FC4F7D
:100E20000190F081E02DE417F50791F467E0649FED
:100E3000F001659FF00D1124E956FC4F41E0448319
:100E40002313E6CF0196837099278093D7030895E3
:100E50000196282F2370DACF1092340310923303B7
:100E6000E7E9F3E08581811102C01482168237968A
:100E700083E0EF3CF807B1F70895B0E0A0E0E3E4C9
:100E8000F7E00C9467364B018FEF9FEF443051052C
:100E900008F46AC04091E50341FB882780F990E09F
:100EA000880F991F42FB002700F910E0000F111F67
:100EB000000F111F802B912B40FBAA24A0F8B12C0E
:100EC000A82AB92A43FB882780F9C82FE0E0DE2F43
:100ED00053E0CC0FDD1F5A95E1F7CA29DB2944FB0B
:100EE000AA27A0F9B0E064E0AA0FBB1F6A95E1F75A
:100EF000AC2BBD2B45FBEE27E0F9F0E075E0EE0FE3
:100F0000FF1F7A95E1F7EA2BFB2B46FB222720F9FE
:100F100030E0A6E0220F331FAA95E1F72E2B3F2BDE
:100F200047FB442740F950E05695542F44275795E6
:100F30004795242B352B8091E603982F9170D92E5D
:100F4000C22ED32A86958170F82EFF0CE12CCE2874
:100F5000DF280D2C000CEE08FF08F401C082D182BE
:100F6000E282F38290E080E0CDB7DEB7ECE00C9453
:100F70008336EBE0F3E0848195812AE030E0B9012B
:100F80000E94D9356093210186818093200182855A
:100F900080931F01848580931E0186859785B90102
:100FA0000E94D93560931D01808980931C0182893C
:100FB00080931B01848980931A01089580910B030B
:100FC00090910C0390932301809322010895FA01DC
:100FD000882311F009950895FB01FCCF08958091B5
:100FE000EB03982F9E7F29F4817082608093EB033E
:100FF00008958A34E8F381708864F8CFB0E0A0E007
:10100000E4E0F8E00C946736D82EC62EE901E42F10
:10101000F0E0E257FC4F61110BC04491942FE42F94
:10102000E98348839A83CDB7DEB7ECE00C9483362E
:10103000062F10E0E49186E0D89E700111242FEF76
:1010400030E0C701B9010E94D9358D2D90E0880F9D
:10105000991FF5E5F69FA001F79F500D1124841B01
:10106000950B982F990F890FA901401B510BE49FF5
:10107000D001E59FB00D11244B2FC89E60011124B3
:10108000CD2CDD245901AC18BD08EA9D6001EB9D13
:10109000D00C11249D2D4901881A9108809E500181
:1010A000819EB00C909EB00C1124AB2CBB242A194D
:1010B0003B09E29F8001E39F100D1124633071050D
:1010C000D1F08CEFE81683E0F80670F4613071051A
:1010D000B1F062307105B9F08FEFE816F10408F055
:1010E0009FCF9B2F412F9CCF6430710579F06630E4
:1010F0007105B9F395CF4D2D9E2FEB2F91CF4E2F2C
:10110000ED2D9B2F8DCF912F4E2FF7CF9E2FE12FBF
:1011100087CF0E94B00620917C0230917D02232B64
:1011200021F0809378029093790220917E02309191
:101130007F02232B21F08093760290937702E09137
:10114000DD03F091DE03309749F082E080937A026C
:101150000480F581E02D8AE792E009950895909149
:101160007C02803F59F480917D0287FF0DC0109270
:101170007D0291110BC01092740208C0813F81F46E
:1011800080917D0218169CF3992381F080917E0254
:1011900090917F02892B09F064C010927302089528
:1011A000823F49F497FFF0CF10927C0280917D023C
:1011B0008111ECCFE0CF833F19F41916ACF3E4CFE3
:1011C00020917E02893F29F41216F4F610927E02D5
:1011D000DBCF8A3F19F427FFD7CFF8CF20917F02CA
:1011E0008B3F29F427FFD0CF10927F02CDCF8C3FC9
:1011F00019F41216CCF3C8CF843F31F480917B02EE
:101200008E7F80937B02C0CF853F21F480917B024B
:101210008D7FF7CF863F21F480917B028B7FF1CFCA
:10122000873F21F480917B02877FEBCF883F21F4B9
:1012300080917B028F7EE5CF8D3F31F480917502E6
:101240008E7F80937502A0CF8E3F21F4809175022E
:101250008D7FF7CF8F3F09F097CF809175028B7FFD
:10126000F0CF08958091750280FF0CC060911B0142
:1012700070E075956795759567956115710549F1EC
:10128000862F089581FF06C060911B0170E075955F
:101290006795F3CF60911B0182FD0BC090917302A3
:1012A0009923A1F060911A0180911B01961738F0E3
:1012B000682F70E06038710500F38FE70895899F0B
:1012C000C001112470E00E94ED35F4CF61E070E0C0
:1012D000D7CF81E0089580917502609113037091DA
:1012E000140380FF16C020911F01269FC001279F75
:1012F000900D1124BC0176956795769567956038B9
:10130000710508F043C06115710509F441C0862FCD
:10131000089581FF0BC020911F01269FC001279FC8
:10132000900D1124BC0176956795E9CF82FF09C025
:1013300080911F019B01829FB001839F700D11243A
:10134000DECF209174022223D1F290911E01809170
:101350001F01482F50E0291748F0CB01849FB001AE
:10136000859F700D949F700D1124C9CF289F900107
:101370001124269FA001279F500D369F500D112448
:10138000692F70E0CA010E94D935B9CF8FE708955F
:1013900081E00895803F31F40E946B09819580932C
:1013A0007D020895813F19F40E946B09F8CF823FB6
:1013B00031F40E946B09819580937C020895833FEC
:1013C00019F40E946B09F8CF893F29F40E94320971
:1013D00080937E0208958A3F21F40E94320981950C
:1013E000F7CF8B3F31F40E943209819580937F02C1
:1013F00008958C3F19F40E943209F8CF843F31F4EC
:1014000080917B02816080937B020895853F21F467
:1014100080917B028260F7CF863F21F480917B022E
:101420008460F1CF873F21F480917B028860EBCF0D
:10143000883F21F480917B028061E5CF8D3F31F4BC
:101440008091750281608093750208958E3F21F42A
:10145000809175028260F7CF8F3FB9F78091750256
:101460008460F1CF80E008959091E50392FF06C07B
:10147000282F28712830F9F4877F846093FF06C0F5
:10148000282F28712831F1F4877E84612091E603AA
:1014900020FF06C0382F38713830D9F4877F81603B
:1014A00021FF06C0282F28712831D1F4877E816161
:1014B00094FD877E0895282F24712430F9F68B7FC0
:1014C0008860DCCF282F2471243101F78B7E88615E
:1014D000DDCF382F3171313019F78E7F8860E0CF42
:1014E000282F2171213121F78E7E8861E1CFCF93A2
:1014F000DF93EC01803E910509F467C058F5813314
:10150000910509F4AFC090F48932910509F49FC0A8
:101510008A9709F4AEC0C130D10509F469C0CE0183
:101520000497813A910508F05CC062C08933910547
:1015300009F43FC082389105E1F1C59709F482C0F2
:10154000C83AD10508F09CC0C53AD10520F3A4974C
:10155000D0644EC0843E910509F459C070F4823EB7
:10156000910509F441C0833E910509F445C0CE01BF
:10157000805E91090897A8F53BC0863E910509F465
:1015800051C0873E910509F452C0811522E59207AA
:1015900008F0A9C0811531E5930708F0FAC08F3F24
:1015A000910511F008F07BC0803F910548F2D065AD
:1015B0001FC08091E503837009F01BC18091E60391
:1015C00083FF16C0C9E2D0E013C08091E50380FD1F
:1015D00046C09091E60390FF0BC0C3EED0E084FFBD
:1015E00007C0D0E0C0E004C08091E50382FDF5CFE4
:1015F000CE01DF91CF9108958091E50382FDF6C081
:101600009091E60390FDF5C084FFF2CFEACF809180
:10161000E60381FFEDCF8091E503C7EED0E084FDC6
:10162000E0CFE6CF8091E50383FDF7CFE1CF809156
:10163000E50383FDE1C09091E60391FFE5CFC4EEA1
:10164000D0E0D6CF8091E50385FFD2CFBBCF80918C
:10165000E50385FDD4C08091E60383FFC9CFC9E3CC
:10166000D0E0C6CF8091E50386FFC2CFCAE2D0E0CA
:10167000BFCF8091E50386FFBBCFC1E3D0E0B8CFF9
:10168000CF3BD10508F073CFC85AD0E0CC0FDD1F97
:10169000CC5CDE4F0990D881C02DD464A9CF8115D0
:1016A00040E5940760F4C11580E4D80708F06EC0E7
:1016B000CE019A9581159F4108F49ACF92CF282F99
:1016C00026952695237040E2249F90011124837073
:1016D000C1E0D0E002C0CC0FDD1F8A95E2F7C22B3B
:1016E000D32BDD6885CFC11586E5D80738F5C11540
:1016F00025E5D20708F061C0C11534E5D307C8F469
:101700009C2F969596959E0123703327C115D3453E
:1017100008F044C0C1E0D0E002C0CC0FDD1F2A9524
:10172000E2F720E2929FC0011124C82BD92BDC687C
:101730005FCFDC2FCC27C46FD06A5ACFC1153AE5F2
:10174000D30788F4C11549E5D40708F041C0CE019C
:1017500098558F3F910511F008F043CFDC2FCC272F
:10176000C06FD06A45CFCE0190568115904208F0E7
:1017700038CF8D2F8F710E94340A90E0982F8827E0
:1017800088279F719C012C2BE90120C0DF70D06A53
:101790002FCFD82FCC27C16FD06A2ACFC1E0D0E09D
:1017A00002C0CC0FDD1F2A95E2F730E2939FC00103
:1017B0001124C82BD92BDA681BCF8C2F0E94340A36
:1017C000C82FD0E0DC2FCC27CC27DF71D06210CF20
:1017D0008C2F8F700E94340A34E0D695C7953A95C5
:1017E000E1F7CF70DC2FC82FD06902CFC2EED0E076
:1017F000FFCEC0EED0E0FCCEC6EED0E0F9CEC5E321
:10180000D0E0F6CE80914D02882331F010924D0247
:1018100010924C0210924B020895CF93C82F8091E2
:10182000E60382FF0CC080914D028C1741F00E94AC
:10183000B00690934C0280934B02C0934D02CF911F
:101840000895982F90958091EA0289238093EA0267
:10185000089510922A0210922902109228020895E7
:1018600080910D0390910E03892B91F00E94B00698
:1018700020914B0230914C02AC01421B530B9A0158
:1018800081E040910D0350910E032417350708F4B1
:1018900080E081700895909126019923E1F0909164
:1018A000E50397FF18C0E82FE695E695E695803F9B
:1018B000F0F4F0E0E855FE4F877021E030E0A90138
:1018C00002C0440F551F8A95E2F7CA0180959281A4
:1018D000892382830895EAEAF1E09191891303C094
:1018E000DF0111971C9251E0E03BF507B1F7089535
:1018F000909126019923C1F09091E50397FF14C0C0
:10190000E82FE695E695E695803FF8F4F0E0E85597
:10191000FE4F877021E030E001C0220F8A95EAF780
:101920008281822B82830895AAEAB1E0EFEF90E0F2
:101930002D91821751F0EF3F19F4211101C0E92FC9
:101940009F5F9630A9F7EF3F09F408950E2E000C23
:10195000FF0BE855FE4FE6CFE09127029091E6019C
:10196000E91302C080E008952E2F30E058E0E59F93
:10197000F0011124E951FE4F5181561306C05081E8
:10198000581303C05281541304C0F9013196E77013
:10199000E7CF81E00895809127029091E6019813A6
:1019A00001C008958F5F8770FACF292F943078F5A2
:1019B0008C3068F590E03CE0239F800D911D112450
:1019C000682F677023E0969587952A95E1F7FC01CB
:1019D000EE0FFF1FE80FF91FE453FE4F50E040E009
:1019E00080E0219130E0062E02C0369527950A94BA
:1019F000E2F721703327042E01C0220F0A94EAF780
:101A0000822B4F5F5F4F4330510559F7089580E0B7
:101A10000895292F943090F58C3080F590E03CE0CB
:101A2000239F800D911D1124282F277041E001C0B4
:101A3000440F2A95EAF723E0969587952A95E1F7D2
:101A4000FC01EE0FFF1FE80FF91FE453FE4F90E07B
:101A500080E070E05191DF0111979B01082E02C0D8
:101A6000369527950A94E2F721702195252724239E
:101A700025272C9301968330910561F70895282F2F
:101A800092959F70963091F060F4925F9F709230C3
:101A900030F481E0203F81F030F4283E30F080E0E7
:101AA00008959A5FF3CF243FD1F7089581E0283E4F
:101AB000E0F3213FA1F7F9CF08959C019A95811594
:101AC0009F4150F5D901AA27B170F901EE27F270B4
:101AD000B90166277470A9014427587034FF0EC0FD
:101AE00080E1AB2B09F480E0EF2B09F08062672BDB
:101AF00009F08064452B89F08068089581E0AB2B64
:101B000009F480E0EF2B09F08260672B09F0846014
:101B1000452B19F08860089580E008958F929F9278
:101B2000BF92CF92DF92EF92FF920F931F93CF93CA
:101B3000DF9326E9822E21E0922EA3E2B4E080E03A
:101B400001E010E0E40199914E01E92FE295EF7078
:101B5000F0E021A19F70780101C0EE0C9A95EAF7A0
:101B6000922F9E2991A322A1BE2CB0942B2122A3B7
:101B7000D0EADA95F1F79AE9C92E91E0D92E70E012
:101B800060E050E040E0E60199916E01292F229536
:101B90002F7030E0E90128A130E09F7002C0359538
:101BA00027959A95E2F720FD33C09801062E02C0D2
:101BB000220F331F0A94E2F7422B532B6F5F7F4FA4
:101BC0006C30710501F791A19B2191A392A1E92AA3
:101BD000E2A22D913C91119790E04217530721F01A
:101BE00011965C934E9391E0892B1296DAE98D164B
:101BF000D1E09D0609F0A6CFDF91CF911F910F9103
:101C0000FF90EF90DF90CF90BF909F908F900895BE
:101C100030E020E0D1CF8093E7037093E903609335
:101C2000E80380911D048430F9F48093E9008FEF7C
:101C30009091E800815095FD06C095ED9A95F1F7D9
:101C400000008111F5CF8091E80085FF0DC050E0C4
:101C500040E063E070E087EE93E00E9447058091EA
:101C6000E8008E778093E8000895BC0184E00E942C
:101C70000B0E0895BC0183E00E940B0E089524E032
:101C80002093E9002FEF3091E800215035FD06C088
:101C900035ED3A95F1F700002111F5CF2091E800DC
:101CA00025FF0BC050E040E066E070E00E94470571
:101CB0008091E8008E778093E8000895CF93DF93BA
:101CC000D82FC92F809126018823C1F18091E50387
:101CD00087FF34C060E284E08093E9008FEF909149
:101CE000E800815095FD06C095ED9A95F1F700004A
:101CF0008111F5CF8091E80085FF1DC080912601FC
:101D000070E050E040E0811104C050E040E068E045
:101D100070E08D2F9C2F0E9447058091E8008E7700
:101D20008093E80080E2ED2FFC2FA2EFB3E001905A
:101D30000D928A95E1F7DF91CF91089568E081E0F7
:101D4000CBCF81E08093E00080E28093D8001092B6
:101D5000C9008FE19EE40197F1F700C0000087E021
:101D600090EBDC0180932B0490932C04A0932D0422
:101D7000B0932E0488E19CE00FB6F894A895809368
:101D800060000FBE90936000FFCF9C01215031098D
:101D900008F408958FE99FE00197F1F700C0000073
:101DA000F5CF8091EB0380FD12C010928C0210924F
:101DB0008B0210928D0210928F0210928E0210925E
:101DC0009002109292021092910210929302509AF5
:101DD0003BB13E7F2BB121604FB7F8948BE892E086
:101DE000FC010196508168E02BB9000000C057FF4C
:101DF0003BB9550F000000C000C000C03BB900C097
:101E00006A9591F752E08439950751F74FBF8FE5F6
:101E100094E00197F1F700C000000895EF92FF925F
:101E20000F931F93CF93DF93EC010BE812E0F12C9B
:101E3000E12C6091ED038091EC039C81E114F104AD
:101E4000E9F49923E9F098014091EE030E94FE071E
:101E50008FEFE81AF80A0D5F1F4F83E0E816F104D0
:101E600041F70E94D10E8C8190E0019681709927F4
:101E70008C83CDB7DEB7E6E00C948936992319F34D
:101E8000980140E0E3CFAEE0B0E0E9E4FFE00C947D
:101E90006B368D879E87AD85BE8514961C91212F4C
:101EA00030E0D9010E9438369B01AC010E944E36C9
:101EB00069837A838B839C83E0E2F0E0E11BF10984
:101EC000A5E5B0E09B01AC010E944E3669877A8798
:101ED0008B879C879F01DF010E9430369B01AC01FC
:101EE0000E9459366D837E838F8398879B01AC0156
:101EF00089819A81AB81BC81280F391F4A1F5B1FE2
:101F000069857A858B859C850E940136F22E822F09
:101F100090E0A9E2A217C0F1B3E02B9F9001112439
:101F200035952795122F10959BE8C92E92E0D92E52
:101F300000E085E5E82EEF18802F8695A1F58E2D1F
:101F40009601412F6091ED030E94FE070F5FF3E0C1
:101F5000CF0ED11C033081F70E94D10EAD85BE8516
:101F600014969C9181E0992319F0903219F48FEF27
:101F70008093190180911901890FED85FE85848375
:101F80002E96E8E00C94873625E530E0F901E81B51
:101F9000F90B9F01220F331F2E0F3F1F37FFC0CFBA
:101FA0002F5F3F4FBDCF8F2DCBCF0F931F93CF937D
:101FB000DF9310928C0210928B0210928D0210927D
:101FC0008F0210928E021092900210929202109242
:101FD000910210929302CBE8D2E010E000E08091F1
:101FE0008902082E000C990B081719078CF18091B3
:101FF0001801082E000C990B801791074CF19E01D7
:102000004091EE036091ED038091EC030E94FE0786
:102010000F5F1F4F23960330110509F70E94D10E61
:102020008091170190918902980F909389022091D5
:102030001801280F20931801121614F492301CF086
:10204000819580931701DF91CF911F910F91089592
:10205000198218821A82DCCFB0E0A0E0E2E3F0E15E
:102060000C946B36FC018281DD24DA9480FD02C081
:10207000DD24D3940BE812E0D0E0C0E0F801118237
:102080001082128294E0E92EF12CC12C80918802FA
:102090008C0D8430C4F163E00E94CB35892F082E6B
:1020A000000C990B8C179D0791F48091EE038E9D87
:1020B000A0018F9D500D1124559547955595479535
:1020C00098016091ED038091EC030E94FE07CD0C16
:1020D000F1E0EF1AF108D1F621960D5F1F4FC330E2
:1020E000D10561F60E94D10E8091880291E0D9124B
:1020F00010C081110CC082E080938802CDB7DEB79A
:10210000E8E00C94873687FFCACF8D5FC8CF815037
:10211000F3CF90E00196BE010E94ED35EDCFEF9236
:10212000FF921F93CF93DF93EC018BE8E82E82E0C0
:10213000F82E10E08C8197014091EE036091ED0341
:10214000810F0E94FE071B5A83E0E80EF11C1F3F1F
:1021500089F70E94D10E9A818C8190FF08C08F5F11
:102160008C83DF91CF911F91FF90EF900895815064
:10217000F7CF9091EB0390FF14C080938C02609393
:102180008B0240938D0280938F0260938E02409366
:1021900090028093920260939102409393020E9476
:1021A000D10E0895A3E0B0E0E8EDF0E10C946F36B5
:1021B0008C0180918A0281110AC09E012F5F3F4FDE
:1021C0004FEF6FEF0E94FE078A8180938A02F80129
:1021D0006481613049F06230D1F080918A0240E040
:1021E000662331F040E015C060918A0240E080E053
:1021F0000E94B910F801848190E0019663E070E0DC
:102200000E94ED3584832396E4E00C948B36409154
:102210008A0280E060E0ECCFA3E0B0E0E2E1F1E12F
:102220000C9471369091EB0390FF0AC09E012F5FD2
:102230003F4F0E94FE074B8169818A810E94B9103D
:102240002396E2E00C948D36CF93DF93EC01EBEE16
:10225000F3E0438162818C810E940C118C818F5F3D
:102260008C83DF91CF910895CF93DF93EC01EC81C4
:10227000F0E0ED56FB4F4491EBEEF3E0628181819B
:102280000E940C118C818F5F8C83DF91CF91089518
:1022900010928C0210928B0210928D0210928F027B
:1022A00010928E021092900210929202109291025D
:1022B0001092930261FF03C09FEF90938C02282F2E
:1022C000227081FF05C09FEF90938C0290938D0246
:1022D00082FF03C09FEF9093900283FF07C08FEFB0
:1022E00080938F0280938E0210929002222349F0F5
:1022F0008AE0809392028FEF809391028DE7809322
:1023000093020E94D10E08950E94E806682F8091E2
:102310001E040E94481108950F931F93CF93DF93DB
:102320000BE013E0C7EAD1E0CE010E94E736F801E6
:1023300081938F012196CB3CF1E0DF07A9F7CDE136
:10234000D7E0FE0185919491009711F0FC01099569
:102350002C96F8E0C931DF07A1F7DF91CF911F91EB
:102360000F9108950F931F93CF93DF93843030F52F
:10237000643020F54C3010F5C42FD0E0CC0FDD1FB9
:1023800028E1629FC00DD11D112430E6839FC00D4E
:10239000D11D1124CE0187960E94E736082F10E048
:1023A000102F0027CE0188960E94E7369801282B2F
:1023B000C901DF91CF911F910F91089590E080E0C6
:1023C000F8CF462F672F2091E8023091E902232BA6
:1023D00091F4703F39F4403F71F48091E60290919E
:1023E000E7020895843038F4743028F44C3018F43F
:1023F0000E94B211089580E090E00895B0E0A0E05E
:10240000E4E0F2E10C946C367C0100911E048091B2
:102410004E02082BC7E0D0E010E0DC2EC8010C2EE5
:1024200002C0959587950A94E2F780FD09C021972F
:10243000A0F7D12C8D2DCDB7DEB7E7E00C94883610
:10244000B7018C2F0E94E1110E94770A019779F35E
:10245000F1CFCF93DF93D82FC92F0E94FE116D2F9C
:102460007C2F0E94E1110E94770ADF91CF9108959D
:10247000CF93DF93EC014B815C81698188810E945D
:10248000F506811110C08E819F81009739F00E945E
:10249000770A0E943F0DDF91CF910895888199813D
:1024A0000E942912F6CF80E0F6CFA5E0B0E0EBE580
:1024B000F2E10C94703649835A8389819A816623AC
:1024C00099F0222389F00E94FE11182F682F89812C
:1024D0009A810E94090D69817A81812F0E94E11100
:1024E0002596E3E00C948C360E94D50C182FF3CF80
:1024F000FC01262F86819781009739F44081518114
:102500006281738184810E945512089583E290E074
:102510000E94E7368D3989F484E290E00E94E73624
:10252000803459F485E290E00E94E73691E08B3EDA
:1025300009F090E0892F8170089580E0FCCFCF935F
:1025400084E090E00E94E736C82F82E290E00E948B
:10255000E736982F8C2FCF9108959C01CB01BA01BB
:10256000F9013296459154916417750748F0F901C5
:102570003496659174910E94C73690E080E008958A
:102580008FEF9FEF08950F931F93CF93DF930BE08F
:1025900013E0C7EAD1E0CE010E94E736F80161916D
:1025A0008F01681719F0CE010E94FB362196CB3CB3
:1025B000F1E0DF0781F7DF91CF911F910F9108952F
:1025C0009C01DA010296FC0145915491FC01859130
:1025D0009491A817B90758F0F90134968591949110
:1025E0000E94C7360E94C31290E080E008958FEFEA
:1025F0009FEF0895CF93DF93CBE1D2E060E0CE016F
:102600000E94FB362196C11584E0D807B9F7DF9107
:10261000CF9108951F93CF93DF93962F122F632F9F
:102620008430D8F49430C8F44C30B8F4C42FD0E0DF
:10263000CC0FDD1F28E1929FC00DD11D112490E623
:10264000899FC00DD11D1124CE0187960E94FB36B3
:10265000612FCE0188960E94FB36DF91CF911F91AA
:102660000895CF93C82F6FEF81116DE983E290E059
:102670000E94FB366FEFC11160E484E290E00E949B
:10268000FB366FEFC1116BEE85E290E00E94FB36E6
:10269000CF910895CF93682FC92F84E090E00E94D6
:1026A000FB366C2F82E290E00E94FB36CF910895BA
:1026B000AAE0B0E0EEE5F3E10C946B36E4E9F2E079
:1026C00080E5DF011D928A95E9F7E7E9F3E088E309
:1026D000DF011D928A95E9F784E9C82E82E0D82EA1
:1026E0007F010BEC11E0F701D182C0824AE050E09B
:1026F000B801CE0101960E94D73688E0FE013196DE
:10270000D60101900D928A95E1F789859A85D701C6
:1027100013969C938E931297BAE0CB0ED11CE7E0F0
:10272000EE0EF11C065F1F4F0B31F2E01F07D9F6CA
:102730002A96E8E00C9487366091EB03669570E08A
:102740004BE050E08CE091E00E94AD36892B19F40B
:1027500081E0809387020E94B0069093810280936B
:10276000800208950F931F93CF93DF938B01D82F8F
:10277000C92F0E94EF07A8016D2F7C2F88E090E001
:102780000E940D37DF91CF911F910F910895A7E01F
:10279000B0E0EDECF3E10C946436F82E762EE42EE6
:1027A000622E9091EB0390FF2BC0E92FE695AE2FA0
:1027B000B0E0AE59BE4F8C91809386029E7F9230DE
:1027C00019F59E012F5F3F4F8F2D0E94FE074B8111
:1027D00069818A810E94B910F092EC037092ED0336
:1027E000E092EE03662061F08091EB039091EC03A0
:1027F000A091ED03B091EE03BC01CD010E94B21394
:102800002796EFE00C948036823019F4E090EE03C6
:10281000E3CF863019F4F090EC03DECF8930D9F3A2
:102820008931D1F6E9518E2F8170582EE695F0E06E
:10283000E257FB4FE4910E2F10E08BE8C82E82E0A8
:10284000D82EB12CA12C93E0892E912CC501B40176
:102850000E94D9358F2D511013C0860F96014E2D31
:10286000672D0E94FE07A00EB11E93E0C90ED11C79
:10287000A4E9CA16A2E0DA0649F70E94D10EACCF4D
:10288000861BECCFEBEEF3E0438121E1421B08F421
:1028900040E021E0628181810E94C7130895EBEE40
:1028A000F3E0438121E1420F08F44FEF21E0628120
:1028B00081810E94C7130895EBEEF3E0628121E16C
:1028C000621B08F460E021E0438181810E94C7130C
:1028D0000895EBEEF3E0628121E1620F08F46FEFFF
:1028E00021E0438181810E94C7130895EBEEF3E05C
:1028F000818121E04381628188500E94C71308953D
:10290000EBEEF3E0818121E043816281885F0E94E8
:10291000C7130895A4E0B0E0E0E9F4E10C94713647
:102920008091EF03882319F081508093EF03809109
:10293000EB039091EC03A091ED03B091EE03BC0189
:10294000CD010E94B2132496E2E00C948D36A4E0EF
:10295000B0E0EDEAF4E10C9471368091EF0383303E
:1029600018F48F5F8093EF038091EB039091EC0359
:10297000A091ED03B091EE03BC01CD010E94B21312
:102980002496E2E00C948D36A4E0B0E0EAECF4E1A9
:102990000C9471369091EB0390FF2EC091708111D1
:1029A0002FC092609093EB03662361F08091EB035C
:1029B0009091EC03A091ED03B091EE03BC01CD0129
:1029C0000E94B2136091EB03669570E04BE050E01B
:1029D0008CE091E00E94AD36892BC9F010928702FD
:1029E00081E08093830220E04091EE036091ED034B
:1029F0008091EC030E94C7132496E2E00C948D367C
:102A0000853210F09864CECF880F982BCBCF0E94E0
:102A10009C13E6CF9091EB0396958FEF890F913041
:102A200009F484E261E00E94C41408958091EB03EC
:102A300086958F5F853208F081E061E00E94C414C2
:102A400008959091EB0390FF08C09695981728F091
:102A5000961718F40E941615089561E00E94C41498
:102A60000895A4E0B0E0E7E3F5E10C947136EBEEF5
:102A7000F3E083E0808311828FEF8283838314826B
:102A800080819181A281B381BC01CD010E94B213EA
:102A90002496E2E00C948D360E948E0D882341F13D
:102AA00081E0809351020E94B0069093500280937F
:102AB0004F0280914F02909150020E94A10605970B
:102AC000D8F048E050E063E274E08BE692E00E94C8
:102AD000BA36892B99F088E0E3E2F4E0ABE6B2E0A5
:102AE00001900D928A95E1F781E0109251020895CC
:102AF000809151028111DDCF80E0089580E0F5CF13
:102B00008091EA0290911F04892B8093A801809103
:102B10004D02882319F180910D0390910E03892BAA
:102B200029F00E94300C81110E94020C8091A801B2
:102B300090914D02892B8093A801809126018823D2
:102B4000E1F18091E50387FF38C08EE1EAEAF1E028
:102B500090E08150A0F591110E94020C40E250E0FB
:102B60006BE272E088EA91E00E94BA36892B21F18B
:102B700080E2E8EAF1E0ABE2B2E001900D928A95E2
:102B8000E1F7E091DD03F091DE033097A9F0809149
:102B90002601882359F08091E50387FF07C08091C3
:102BA000A8018093A90186E08093A8010280F381A7
:102BB000E02D88EA91E00995089586E0C7CF21913C
:102BC000222339F29F5FC5CF80912401877F8093B4
:102BD000240190911F049D7F90931F0484FF08C0DF
:102BE0008F7E809324018091EA0282608093EA02C2
:102BF0008091240185FF08C08F7D809324018091FE
:102C0000EA0280628093EA020E948015089590E0B3
:102C100080E00E94D20690E080E00E94BC06109204
:102C20001F040E94801586E0EAE7F2E0DF011D92B2
:102C30008A95E9F71092740210927302109275024D
:102C40000E9489080895CF93C82F0E94E806682F34
:102C50008C2F0E944811C0931E040E940716CF912A
:102C6000089580911E04982F9670963021F4886004
:102C70000E9423160895877FFBCF21E030E001C03A
:102C8000220F8A95EAF7209580911E0482230E94E4
:102C90002316089590912A028095892380932A0211
:102CA000282F277091F4282F082E000C330B921731
:102CB000130659F09091E60392FF07C0859585951C
:102CC00085950E943D160E94290C08959091E60377
:102CD00092FB222720F9281769F080FB92F9909344
:102CE000E6038091E5039091E6030E944A1382E097
:102CF0000E944A16089521E030E001C0220F8A9513
:102D0000EAF780911E04822B0E9423160895909169
:102D1000E60392FF10C098E0899F90011124622B76
:102D200060932A020E947B160E94B00690932902AB
:102D30008093280208950E947B16089580934E0286
:102D40000E94071608951092EA0280912601EAEA8D
:102D5000F1E0882361F08091E50387FF08C08EE1F0
:102D6000DF011D928A95E9F70E940716089586E013
:102D7000F7CFAAE2B0E0EFEBF6E10C94703685E114
:102D800094E0FC0101962091F100208324E08D3134
:102D90009207B9F780911604893009F456C0C8F437
:102DA000823009F4B3C0833009F482C0813071F1FC
:102DB0008091E80083FF92C28091150490911604DF
:102DC0009A3008F08BC2E92FF0E0E75CF84C0C94E5
:102DD00023368A3009F489C08B3051F7809115046D
:102DE000813231F78091190490911A04892B01F7EF
:102DF0008091E800877F8093E8000E94970580918A
:102E00001704809326010E94A316D2CF8091150447
:102E1000813A71F68091E800877F8093E800809185
:102E2000190490911A04892B61F460E282EF93E017
:102E300070E00E9443068091E8008B778093E80061
:102E4000B7CF60E090E080E0F3CF8091150481324D
:102E500009F0AECF8091190490911A048D7F892BCF
:102E600009F0A6CF8091E800877F8093E8008091E9
:102E7000E80082FF18C09091F3008091F200029761
:102E800031F48091F100813011F0863021F480918D
:102E9000F1008093F1038091E8008B778093E80044
:102EA0000E94970585CF80911D048111E0CF80CFCE
:102EB00080911504813A09F07BCF8091190490919B
:102EC0001A04892B09F074CF8091E800877F8093E2
:102ED000E8008091E80080FFFCCF8091260180937C
:102EE000F1008091E8008E77D9CF8091150481326E
:102EF00009F05ECF8091E800877F8093E8000E9410
:102F00009705809118048093F00352CF80911504A7
:102F1000813A09F04DCF8091E800877F8093E800E7
:102F20008091E80080FFFCCF8091F003D8CF8038FB
:102F300099F0823809F0D2C1809119048F708730DE
:102F400008F0CCC18093E9008091EB0085FB8827D5
:102F500080F91092E90006C0809112049091130448
:102F6000911182609091E800977F9093E8008093A0
:102F7000F1001092F1008091E8008E77ABC18823B8
:102F800009F499C1823009F0A9C180911704811117
:102F90009CC1809119048F702FEF280F263008F004
:102FA0009DC18093E9002091EB0020FF8EC19330FA
:102FB00031F48091EB0080628093EB0086C19091A8
:102FC000EB0090619093EB0021E030E001C0220F14
:102FD0008A95EAF72093EA001092EA008091EB00CC
:102FE0008860EACF81117AC1109117041F77809110
:102FF000E3008078812B8093E3008091E800877F55
:103000008093E8000E9497058091E80080FFFCCF44
:103010008091E30080688093E30082E0111183E0F7
:1030200080931D045BC18058823008F057C14091E5
:103030001704509118044C3D83E05807A1F583E034
:103040008A838AE289834FB7F894DE01139620E0E1
:103050003EE051E2E32FF0E050935700E49120FF6F
:1030600003C0E295EF703F5FEF708E2F90E0EA3083
:10307000C0F0C7968D939D932F5F243159F74FBFB2
:103080008091E800877F8093E8006AE270E0CE01DB
:1030900001960E9443068091E8008B778093E800B8
:1030A0001DC1C096E7CF8091190490911A04252F75
:1030B00033272330310509F44AC078F52130310532
:1030C00009F486C08BE590E0EFEBF8E022303105A3
:1030D00009F004C12091E800277F2093E8002091A7
:1030E0001B0430911C048217930708F49C0140E0F4
:1030F0002115310509F071C041116FC08091E800C0
:1031000082FDC9CF80911D04882329F2853019F2F0
:103110008091E80083FFF2CFBECF2132310509F460
:1031200048C02232310509F0D9C08330910508F03A
:10313000D5C0FC01EE0FFF1FE657FE4F0190F08156
:10314000E02D89579E4FDC018C9190E026C0CA018A
:103150009927423031F18330910568F40097B1F03E
:10316000019709F0BBC0ECE5F9E0E4918E2F90E007
:10317000ECE5F9E012C0039709F0B0C0ECE2F9E029
:10318000E4918E2F90E0ECE2F9E007C0E6E7F9E089
:10319000E4918E2F90E0E6E7F9E0009709F49EC0F5
:1031A00099CFEAE4F9E0E4918E2F90E0EAE4F9E0C7
:1031B000F4CF8330910508F091C0880F991FFC016E
:1031C000E057FE4F0190F081E02D89E090E082CF42
:1031D00082E190E0EAE1F9E07DCF80911D0488234F
:1031E00009F459CF853009F456CF8091E80083FD6A
:1031F00052CF8091E80082FD81CF8091E80080FF6E
:1032000077CF9091F3008091F2002115310519F0EC
:103210008830910550F041E0089709F040E0809136
:10322000E8008E778093E80063CF44914093F100EB
:103230003196215031090196E8CF803809F04EC00F
:103240008091E800877F8093E80080911404809348
:10325000F10091CE811142C0109117041230F0F5A7
:103260008091E800877F8093E800109314040E9407
:103270009705112311F084E005C08091E30087FDDC
:10328000FACF81E080931D0442E061EC81E00E946E
:10329000B60542E261EC84E00E94B60542E261ECD0
:1032A00082E00E94B60542E260EC83E00E94B6052F
:1032B00080911D0413C080911704813079F481E05E
:1032C000933009F080E0809313041092E90080911C
:1032D000E800877F8093E8000E9497058091E800CE
:1032E00083FF0AC08091E800877F8093E800809187
:1032F000EB0080628093EB00AA96E3E00C948C369E
:10330000EBE0F3E0128E138E86E990E091838083E8
:1033100025E0248F88E893E1938382838AE090E01C
:103320009583848344E150E05783468348E050E02E
:1033300051874087938782876EE170E07587648745
:103340009787868780E590E0918B808B538B428BAB
:1033500048E250E0558B448B42E350E0578B468B5C
:103360004AEA50E0518F408F158E178E168E91A32A
:1033700080A322A30E94C3120E94A3161092E60308
:103380001092E503E6EEF3E0808184608083809113
:10339000E5039091E6030E944A130E948C11089560
:1033A000AAE0B0E0E6EDF9E10C946636A090E40204
:1033B000B090E50281E090E09093E5028093E40212
:1033C000912C812CE12C6401F12C15C0F801259180
:1033D0003491472D6F2D8E2D0E940A130E5F1F4FC3
:1033E00073948CE07812F2CF9CE0C90ED11CF39458
:1033F000E4E0FE1639F08601000F111F0D561A4F3A
:10340000712CE4CFE394F0E38F0E911C84E0E8127A
:10341000DACF0E948019FE0131967F018AE0119275
:103420008A95E9F70BEC11E04AE050E0B801C701DA
:103430000E941F37065F1F4F0B31F2E01F07A1F7F5
:10344000B092E502A092E4022A96EDE00C94823656
:1034500080E00E94311360E086E290E00E94FB363B
:103460000E94D0190E94FA1281E00E94311308953F
:10347000CF92DF92EF92FF92FB018FEF9FEF4430EC
:10348000510508F47FC0C080D180E280F3800E94A3
:10349000A316D701C601B695A79597958795817014
:1034A000282F220FD701C60181709927AA27BB2791
:1034B000822BB701A60132E076956795579547951F
:1034C0003A95D1F74170440F440F842BB701A60100
:1034D000E3E07695679557954795EA95D1F7417062
:1034E000440F440F440F842BB701A601F4E07695F6
:1034F000679557954795FA95D1F741704295407F6A
:10350000842BB701A601A5E0769567955795479559
:10351000AA95D1F741704295440F407E842BB701A4
:10352000A601B6E07695679557954795BA95D1F778
:1035300041704295440F440F407C842BB701A60193
:1035400097E076956795579547959A95D1F7479562
:1035500044274795842B8093E503D1FA882780F987
:10356000880F9D2D9170892B9091E6039C7F892B6C
:103570008093E6038091E5039091E6030E944A134D
:1035800090E080E0FF90EF90DF90CF9008950E9450
:10359000A3162FEF84E39CE0215080409040E1F798
:1035A00000C0000088E19CE00FB6F894A8958093D5
:1035B00060000FBE90936000FFCF882341F080959C
:1035C00090911F04892380931F040E948015089501
:1035D000882339F090911F04892B80931F040E9447
:1035E00080150895882321F00E94210C0E948015E7
:1035F0000895882339F09091EA02892B8093EA029A
:103600000E9480150895882309F455C0823879F402
:103610000E94E80681FF4FC089E30E94780C0E9457
:10362000801589E30E944B0C0E9480150895833811
:1036300059F40E94E80680FF3EC083E50E94780CA2
:103640000E94801583E5EECF843859F40E94E80685
:1036500082FF31C087E40E94780C0E94801587E4C5
:10366000E1CF9CEF980F913AE8F290E2980F9830F2
:1036700050F4877091E001C0990F8A95EAF7892F7D
:103680000E94210CD1CF9BE5980F933028F490E055
:1036900080E00E94D206089598E5980F973128F4AB
:1036A00090E080E00E94BC060895803F20F00E94D8
:1036B000AF080E9489080895CF93DF93EC010E9420
:1036C000031BCE010E945D0D9E01205E3109283052
:1036D000310510F0CD2B29F40E94F21ADF91CF9121
:1036E00008950E94DD1AFACFCF93C82F8823C9F01E
:1036F0008238C9F40E94E80681FD13C089E30E9464
:10370000780C0E9480152FEF37EE83E02150304077
:103710008040E1F700C0000089E30E944B0C0E944A
:103720008015CF9108958338A1F40E94E80680FDAA
:10373000F8CF83E50E94780C0E9480159FEF21EE60
:1037400034E0915020403040E1F700C0000083E5B4
:10375000E4CF8438A1F40E94E80682FDE2CF87E43A
:103760000E94780C0E9480158FEF91EE24E081502A
:1037700090402040E1F700C0000087E4CECF8CEFFE
:103780008C0F813A88F580912601882301F1809180
:10379000E50387FF1CC0EC2FE695E695E695F0E083
:1037A000E855FE4F828190E04C2F477021E030E0D9
:1037B00002C0220F331F4A95E2F782239323892BFD
:1037C00079F08C2F0E944B0C0E94801509C0EAEA08
:1037D000F1E08191C817A9F331E0E03BF307C9F7A5
:1037E0008C2F0E94780C9BCF80E28C0F883068F47D
:1037F000C77021E030E001C0220FCA95EAF780913E
:10380000EA02822B8093EA028ACF8BE58C0F833009
:1038100038F42C2F2452330BC9010E94D20681CFD9
:10382000E8E5EC0FE73150F4F0E0EE0FFF1FEC5C41
:10383000FE4F808191810E94BC0673CFC03F08F487
:1038400070CF8C2F0E94CA090E9489086ACF0F93FB
:103850001F93CF93C82F00912B0310912C03893312
:1038600021F00091290310912A038C2F0E94741BD0
:103870000115110539F48C2F0E94031BCF911F9164
:103880000F9108958FE99FE00197F1F700C00000C4
:1038900001501109EDCFFF920F931F93CF93DF9348
:1038A000C62FD42F122FFC0182818823A9F06093A8
:1038B00022040E94B0069093210480932004C770D4
:1038C00081E001C0880FCA95EAF70E94F91ACDB7C6
:1038D000DEB7E5E00C948A3680912204681330C08C
:1038E00080912004909121040E94A1068A3A9105BA
:1038F00038F500E20D0FCD17A9F0C770FF24F3943F
:103900008F2D01C0880FCA95EAF70E94F21A08307D
:1039100048F48D2F877001C0FF0C8A95EAF78F2D30
:103920000E94F91A812F0E94271C083080F6D77058
:1039300081E001C0880FDA95EAF70E94F21AC7CF3A
:10394000C77081E001C0880FCA95EAF7F6CFB0E0F2
:10395000A0E0EDEAFCE10C946C36E82FF0E0E15CCD
:10396000F74FD490282F26952695269530E0F9011B
:10397000E15DF74F0491877010E0082E02C01595A5
:1039800007950A94E2F701701127F901E15EF74FFC
:10399000E490F12C082E02C0F594E7940A94E2F723
:1039A00091E0E922FF24F901E15FF74FC491D0E0F3
:1039B00002C0D595C7958A95E2F7C170DD2701153C
:1039C000110519F081EE0E94741BE114F10419F045
:1039D00086EE0E94741B8D2D0E94271CE114F104B9
:1039E00019F086EE0E94031B0115110519F081EEF6
:1039F0000E94031BCD2B19F08CE20E94271CCDB72F
:103A0000DEB7E7E00C948836FF920F931F93CF93B5
:103A1000DF938C018AE0F82EF8018491882309F461
:103A20004BC0813009F044C0E8012196FE01849129
:103A3000813049F42196FE0184910E94271C8E0159
:103A40000F5F1F4FE9CF823039F4E8012296FE0163
:103A500084910E94741BF3CF833039F4E8012296DD
:103A6000FE0184910E94031BEACF843041F7E801F4
:103A70002296FE01249190E080E0FE0131962053D1
:103A8000330B2A30310548F00197C8F2EFE9FFE027
:103A90003197F1F700C00000F7CFF89EA001F99E22
:103AA000500D1124C901840F951F2491EF01E5CF1A
:103AB0000E94A71CE801C3CFCDB7DEB7E5E00C94A8
:103AC0008A361F93CF93DF93EC011AE08881882315
:103AD00009F43EC08130C9F599818A81913029F479
:103AE00022960E94271C2196F1CF923021F4229633
:103AF0000E94741BF8CF933021F422960E94031B7E
:103B0000F2CF943011F02196EECF229630E020E0F3
:103B1000AE014F5F5F4F8053990B8A30910550F093
:103B20002150310900F38FE99FE00197F1F700C0C0
:103B30000000F6CF129FB001139F700D11249C015D
:103B4000260F371F8981EA01E3CF0E94A71CCBCF44
:103B5000DF91CF911F910895CF93DF93EC010E94E5
:103B60005D0D9E01205E31092830310510F020974F
:103B700041F40E94F91A8C2F0E94741BDF91CF919F
:103B800008950E94E81AF7CF662329F020911F04B8
:103B9000226020931F049C013056211540E2340717
:103BA00020F0305E2115304108F499270E94AC1DA9
:103BB0000895B0E0A0E0EFEDFDE10C946C36EC016F
:103BC0008B01D42E8091240182FF89C0E0903103C3
:103BD000F0903203EC16FD0619F0209709F07FC033
:103BE000809124018B7F80932401C1E081FD10C06E
:103BF00080912F03909130039801281B390BC1E06D
:103C000080912201909123012817390708F4C0E020
:103C1000C17080912401C0FB81F980932401F701D8
:103C200083E0F695E7958A95E1F7EE71FF27E55178
:103C3000FD4F20813181A7014F70552781E090E031
:103C400002C0880F991F4A95E2F7CC2309F442C0BD
:103C5000822B932B918380838091EA0281FF08C09D
:103C60008091240180618093240182E00E94210CD4
:103C70008091EA0285FF08C08091240180628093D0
:103C8000240180E20E94210C6C2FC7010E94C41DF8
:103C9000DD2031F08091260385FF02C086FF38C009
:103CA0008091290390912A030E94C50E80913103CF
:103CB000909132039C013056211540E2340720F0E8
:103CC000305E2115304108F499270E945C1B0E9448
:103CD000E4151AC08095909582239323BBCFCE0123
:103CE0009056811520E2920720F0905E8115904158
:103CF000A0F4CE0199270E945C1B80913103909122
:103D000032038C179D0719F31093300300932F0390
:103D1000CDB7DEB7E7E00C948836CE01ECCF68EE85
:103D20007EEF90E080E00E94193760E082E090E052
:103D30000E94FB3660E083E090E00E94FB36109228
:103D40004E0260E084E090E00E94FB3664E082E294
:103D500090E00E94FB3660E085E090E00E94FB3638
:103D600060E086E090E00E94FB366FEF87E090E035
:103D70000E94FB3640E050E0BA0188E090E00E94EB
:103D80000D3760E08DE090E00E94FB3640E050E0AF
:103D9000BA0188E190E00E940D3760E087E190E091
:103DA0000E94FB3640E050E0BA018CE190E00E94B6
:103DB0000D3770E060E080E290E00E94193740E04B
:103DC00050E0BA0188E190E00E940D3780E00E9447
:103DD00031130E94281A40E050E0BA018FE090E0D1
:103DE0000E940D3740E050E0BA0183E190E00E946C
:103DF0000D370895A8E0B0E0E0E0FFE10C946736ED
:103E00007C01DC0113964D915C91149711966C9195
:103E100011978C910E94F5068111DDC061E0C70108
:103E20000E9478128C01F7018281882309F45BC714
:103E3000C80182519F45409708F0BCC68FEF93E0C0
:103E40000E94E7368111B7C05EEED52ED00E0BE191
:103E500012E0D1103EC08091270190912801A091DD
:103E60002901B0912A0189839A83AB83BC83992469
:103E70009A9468012FEFC21AD20AC8010E94E7364D
:103E800089831A82882309F496C0813009F088C09A
:103E9000580132E0A30EB11CC6010E94E736D82EAD
:103EA0008A83882309F487C0C5010E94E736C82E9B
:103EB0008FEF8D0D8330D8F4580143E0A40EB11C70
:103EC000CB82CC2021F0CE0101960E94611D85019C
:103ED000D0CF0115F4E01F0709F46DC0C8010E949E
:103EE000E736811101C0DA940F5F1F4FB2CF8BEF1D
:103EF0008D0D833070F5C8010396CB825C01CC2018
:103F000031F3580154E0A50EB11C0E94E7368C83B2
:103F10008823E9F20B811C8101308FEF180710F024
:103F2000102F002796E0D91681F0A7E0DA1649F0A5
:103F3000C8010E944B2C8091290390912A030E9472
:103F4000C50EC8010E94262CC2CFC8010E944B2C6E
:103F5000BECFB4E0DB12BBCF5801E4E0AE0EB11C23
:103F6000C80103960E94E736282FCC2021F1882330
:103F700011F12150330B929EA001939E500D1124FC
:103F80002C2D2150330BC901840F951F019708F484
:103F90009ECFAFE9BFE01197F1F700C00000F6CF68
:103FA000CE0101960E94611D560191CF81E00E94D1
:103FB0007B160E94311680912A02877061F0D7012A
:103FC00012968C91882339F08091E60382FF03C01A
:103FD00082E00E944A162896ECE00C94833681E039
:103FE0000E943D16E6CF82E0E2CF82E0F9CF8091D9
:103FF00024018160809324011CC6809124018E7F5E
:10400000809324010E94E41514C6809124018F7EC0
:10401000013E110531F0053E1105E1F480912401C6
:104020008F7D809324018091240180FF11C6D701E8
:1040300012968C910832110540F50E31110508F0E9
:1040400077C09801245031092A31310580F181115E
:10405000FBC5FEC5C8019056811540E2940720F0CB
:10406000905E81159041F8F68091240182FFF0C5A1
:104070008091280381FDECC52EE532E040E0B501DA
:1040800090E080E00E94D91DE3C50933110558F482
:104090000D32110518F40B321105C9F69091260363
:1040A00092FDD5CF08C004361105C1F3D0CF909151
:1040B000260394FDCCCF882309F49DC09091EA0299
:1040C00080914D02D82ED92A2D2D2D7FB1F110923D
:1040D0003203109231032091260321FD2EC0F801F6
:1040E00033E0F695E7953A95E1F7EE71FF27E55154
:1040F000FD4F98012F70332781E090E002C0880FB8
:10410000991F2A95E2F7809590952081318182232D
:1041100093239183808360E0C8010E94C41D809135
:104120004D028D7F0E940D0C82E00E944A1643CF03
:104130009091260393FD8BCFBECF28E0F701AEE52B
:10414000B2E001900D922A95E1F710926002109270
:104150006202109261028090310390903203081540
:10416000190591F52091260325FF2EC030912401D9
:1041700031FBCC24C0F831FF02C026FF25C02091BE
:104180002F0330913003F501E21BF30BEA3AF105FE
:10419000D8F491FF08C080912401806180932401AC
:1041A00082E00E94210C8091EA0285FF08C0809184
:1041B000240180628093240180E20E94210C6C2DF6
:1041C000C4010E94C41DF7CE8D7F0E940D0C109378
:1041D000320300933103B0923003A0922F038D2D50
:1041E00082708460D0902401FD2DF97FDF2ED82AC3
:1041F000D092240199CF970140E0B501C8010E94F7
:10420000D91DD9CE053F9CE51907D9F027E245EE27
:1042100066EE063FACE51A0741F027E245EE64EE94
:10422000043FBCE51B0709F02EC5C7010E944B1CCB
:10423000C2CE27E245EE65EEF8CF26E241EE60EE13
:10424000F4CF26E241EE62EEF0CFC8018A5F9C45D2
:10425000099708F42FC506319CE51907C9F5809127
:10426000EA02982F9A7A2091250320FF04C0482F54
:10427000447409F090E021FF04C0482F417109F017
:1042800090E022FF04C0482F487809F090E023FF17
:1042900003C0827209F090E0332309F41EC181E06B
:1042A000911101C080E08093C80189E2911185E3FA
:1042B0000E94780C0E9480157ECE053A8DE5180785
:1042C00009F4F8C4C8018D5A9D45039708F4F2C457
:1042D0000B358DE5180709F4DDC108F0C4C10E3DAA
:1042E000ACE51A0709F4C9C181E00A35BDE51B0731
:1042F00009F4CDC101151C4509F0FDC00E94A316AB
:104300003FEF44E35CE0315040405040E1F700C0F3
:1043100000000E94A10EF801E350FC458091E503E6
:104320008160E331F10568F5ED5BF84C0C942336C0
:104330000330BDE51B0780F40A3FECE51E0708F4D7
:10434000C9C4F801EB5FFC45E830F10508F03FC057
:10435000EA5AF84C0C9423360D3AFDE51F0729F173
:1043600098F401363DE5130709F4B0C09091E503D8
:10437000892F8E7F90FF8160053A4DE5140709F083
:10438000A9C48093E503A6C40E3A5DE5150709F4B8
:1043900044C00F3A8DE5180709F09CC49091E603DC
:1043A000892F877F93FF886003C08091E603886030
:1043B0008093E6038FC48091E5038260E2CF809111
:1043C000E5038460DECF8091E5038860DACF8091D9
:1043D000E6038160EDCF8091E6038260E9CF8091B2
:1043E000E5038061CECF8091E5038062CACF8091E2
:1043F000E5038064C6CF0E94A3168091E503806820
:10440000C0CF8091E5038C60BCCF8091E6038360D0
:10441000CFCF8091E5038E7FB4CF8091E603877F75
:10442000C7CF8091E5038D7FACCF8091E5038B7F73
:10443000A8CF8091E503877FA4CF8091E6038E7F8C
:10444000B7CF8091E6038D7FB3CF8091E5038F7E58
:1044500098CF8091E5038F7D94CF8091E5038F7B8A
:1044600090CF0E94A3168091E5038F778ACF809129
:10447000E503837F86CF8091E6038C7F99CF80917F
:10448000E50382FB992790F921E0922790FB82F9BE
:1044900090FB83F976CF8091E603982F90959170E9
:1044A0008E7F892B90FB81F983CF0E94A316909178
:1044B000E503892F97FB87F9805863CF61E08EE091
:1044C00090E00E94FB3606C460E0F9CF9091E503CE
:1044D000892F8F7E94FF806154CF8091C801811114
:1044E00004C089E20E944B0CE5CE85E3FBCF0D357D
:1044F000100709F460CDF70186819781009709F4D0
:10450000CBC00E94770A182F092FF701D280C580EF
:10451000C2942FE0C22280912A028770C1F0AD2C94
:10452000DD20B1F0892F807F803421F080E2810F7F
:10453000883068F08091E60382FF09C082E00E9423
:104540004A1680912A028770AA24A3948111A12C73
:10455000802F82958F70882E912C8C3008F030C17E
:10456000F401E25AF84C0C9423368091EB0380FF5F
:1045700021C08E7F8093EB032091EB033091EC03FD
:104580004091ED035091EE032D833E834F83588776
:10459000CA01B9010E94B213109287023FEF40E7AF
:1045A00052E0315040405040E1F700C000000E940E
:1045B000D10E01CD81608093EB0361E086950E946E
:1045C000C414F9CC4AE055E166E175E10E94E707C1
:1045D000F2CC46E155E16AE075E1F8CF46E754E1F7
:1045E00060E874E1F3CF40E854E166E774E1EECFB0
:1045F0004CE554E169E674E1E9CF49E654E16CE544
:1046000074E1E4CF42E454E16FE474E1DFCF4FE4BE
:1046100054E162E474E1DACF4AE854E167EA74E114
:10462000D5CF47EA54E16AE874E1D0CF61E081E098
:10463000C6CF65E082E00E942115BDCC68E086E02F
:10464000FACF6EE089E0F7CF64E18FE0F4CF67E165
:1046500085E1F1CF61E088E1B2CF62E289E1EBCFA1
:1046600061E083E2ACCF0C35FDE51F0749F0073A66
:104670001D4509F040CF0E94C71A0E948F1EFBCF34
:104680008091E60382FB882780F991E089270E94C8
:10469000661631CF80E0FBCF8281C080D180882335
:1046A00069F0C6010E94FE11182F682FC6010E94F2
:1046B000090DB601812F0E94E11123CFC6010E948E
:1046C000D50C182FF6CFF02FFF70BF2E802F807FD4
:1046D00019F0B29490EFB922DD20B9F0BB2069F057
:1046E00080E2810F883010F0111109C08091EA0238
:1046F000B82AB092EA020E948015812F5FC0809193
:104700001F04B82AB0921F04F6CF812F0E94031B0A
:10471000BB2009F455C080E2810F883010F01111E0
:1047200004C08B2D0E94210C06C0B09480911F0400
:10473000B822B0921F040E94801542C0202F2F7013
:10474000B22E802F807F803219F0B29480EFB82291
:10475000112321F1113009F4B3C0DD2009F4BCC0EC
:10476000CC2009F484C020E0D7014C9111965C91D3
:10477000119712966C91129713967C911397149639
:104780008C910E9455128091280381FDB6CFF701CC
:10479000858180FFB2CF8F70858369C08091E603E9
:1047A00082FD45C0DD20E9F1BB2039F08091EA02AD
:1047B000B82AB092EA020E94801580E00E94741B21
:1047C00058E0851A910884E08816910420F40E942C
:1047D000E8060E948411812F902F0E943F0D8111C5
:1047E000C3C11092CB011092CA01AA20A9F08091F6
:1047F0002A0280FD11C0F701128285958595859565
:104800000E947B16C7010E94FA1E80912A0285959C
:10481000859585950E943D1660E0C7010E9478123B
:10482000DACB80E00E94031BBB2051F27ACFDD205F
:1048300011F1C11004C080914D028B2919C031E0E3
:10484000C31206C080914D028B290E940D0CB8CF77
:1048500080912703823078F3C812EDCF0E94020CBA
:104860009091C9018B2D892B89138093C9018B2DC0
:104870000E94F91AA5CFC11003C00E94020C17C0F4
:104880008091270341E0C41216C0823008F498CF0B
:104890008091EA028B2109F493CF0E94020C90913F
:1048A000C9018B2D8095892389138093C9018B2D94
:1048B0000E94F21A85CF823000F3C812DECF80CF7B
:1048C00080912D03DD2021F08C1508F479CFCFCF16
:1048D000C81608F075CFEBCFCC2049F380912B039D
:1048E00090912C03193321F08091290390912A0390
:1048F0000E94C50E812F0E94031B62CF802F8695D8
:104900008695837069F0813009F05ACF812F902FFE
:104910009370D11002C090E080E00E94BC0650CF9E
:10492000812F902F9370D11002C090E080E00E9400
:10493000D20646CF812FDD2029F00E94CA090E94AD
:1049400089083ECF0E94AF08FACF802F837099F577
:10495000D11036CF412F429546954770440F440FF2
:10496000812F8F70042E01C0880F0A94EAF7212F3F
:10497000207114FF07C02FE030E001C0220F4A95DC
:10498000EAF72095302F369536953370323071F036
:10499000333051F040914E02313029F0822B842384
:1049A0000E949E160DCF842B822BFACF282B80914C
:1049B0004E028227F5CF8695DD2011F0802F817081
:1049C000882309F4FDCE412F429546954770440F48
:1049D000440F812F8F70042E01C0880F0A94EAF7CC
:1049E000212F207114FF07C02FE030E001C0220FFB
:1049F0004A95EAF72095302F369536953370323048
:104A000071F0333051F040911E04313029F0822B87
:104A100084230E942316D4CE842B822BFACF282BFA
:104A200080911E048227F5CFF02FFF70BF2EDD206E
:104A300029F08F2F0E947B16812F1ACF812F0E9481
:104A4000F21A8B2D0E943D16BBCE123F89F160F405
:104A5000103FB9F0113F81F0DD2009F480C0C11092
:104A60004CCE802F8F7128C0133F49F1143FA1F71E
:104A70008091E60382FD2FC0802F8F71DD2011F31E
:104A80001BC080912D03DD2079F0C81608F098CE68
:104A9000202F2F7181E090E001C0880F2A95EAF75E
:104AA00090911E048927B5CF8C1508F489CEF0CFDC
:104AB000802F8F71D110C6CF0E947B1681CE80E0EF
:104AC000DD2009F4A6CF81E0902F9F7101C0880FEF
:104AD0009A95EAF79ECF80912703823040F1DD203E
:104AE000D1F090912A029770943041F40E94290CE1
:104AF000802F8F710E943D16A12C62CEC816E0F760
:104B0000202F2F71B22E822F0E947B1663E08B2DF7
:104B10000E948716F1CFC81630F00E94290C64E07D
:104B2000802F8F71F5CF81E00E944A16E5CFDD20FE
:104B300059F0302F3F71B32E832F0E947B1663E014
:104B40008B2D0E9487163CCE81E00E944A1641E0E0
:104B50004C1508F035CE82E00E944A1631CEC110C5
:104B6000BDCE802F8F716ECFDD2019F0C11039CEF0
:104B70003CCEC11036CE20E0D7014C9111965C910D
:104B8000119712966C91129713967C911397149625
:104B90008C910E9455128091280383FF22CE809130
:104BA000CA019091CB01029709F01BCE812F0E9480
:104BB000271C17CE0031FFE51F0709F4F7C90131A3
:104BC0002FE5120709F40FCA81ED91E0013BEDE5F5
:104BD0001E0709F499C08091260380FF39C00E9406
:104BE000B0065C01D70112968C91882309F40DCA96
:104BF0008091240182FF08C02EE532E040E0B5013B
:104C000090E080E00E94D91D0B31BCE51B0709F440
:104C1000EEC90C31ECE51E0709F4EFC990912401AF
:104C2000892F8E7F90FF81600A31FCE51F0709F410
:104C3000E7C9C8019056811520E2920728F0905EDE
:104C40008115904108F0EFC91092320310923103A0
:104C5000033F2CE5120709F4F0CA08F0D3CA083D57
:104C60004CE5140709F4E5CA28E241E0093D5CE59A
:104C7000150709F4E0CA26E241EE61EE073D8CE536
:104C8000180709F4D2CAF7013281332309F43FC06F
:104C9000109222040136FDE51F0761F008F00DCBEC
:104CA00006314CE5140708F0D0CA02305CE5150760
:104CB00008F40ECB0E949F129093E6038093E503C5
:104CC00006319CE5190708F033CB0230ACE51A0732
:104CD00008F021CB8091E5039091E6030E944A13EE
:104CE0000E94A31668C900313FE5130709F477C98C
:104CF00001314FE5140709F478C9013BFDE51F07B1
:104D000009F069CF8AEC91E00E94041D54C9063174
:104D10005CE5150709F4A3CA8091EA028272063D98
:104D2000ACE51A0708F0E3CB023CBCE51B0708F42E
:104D3000E2CBF801E35CFC45E331F10508F015CC6A
:104D4000E659F84C0C942336EF92FF920F931F9381
:104D5000CF93DF938091E301807F09F04CC0809175
:104D6000E001882309F447C0C0912702E090E601E2
:104D7000D091DE01F090DF010091E1011091E2019C
:104D8000EC16C9F1A8016F2D8D2F0E94F5062C2F6E
:104D900030E0811135C0F90183E0EE0FFF1F8A95E5
:104DA000E1F7DF01A951BE4F11968C9111978F1138
:104DB00027C08C918D1324C012968C91129781116B
:104DC0001FC013968D919C91801B910B8A3A91057F
:104DD000B8F48091E3018F7080618093E301E45126
:104DE000FE4F80818F70806180838EED91E00E9404
:104DF000FA1E0E94CB0CCDB7DEB7E6E00C948936E4
:104E00002F5F3F4FC22FC770BBCFADE0B0E0EBE0EC
:104E1000F7E20C9463368C0185E0F801DE01199607
:104E200001900D928A95E1F7D8016C9011967C90D3
:104E300011971296EC9012971396CD90DC9060E04B
:104E40008EED91E00E9478128EEDA82E81E0B82EB2
:104E50005090DE014090DF018090E1019090E201EE
:104E6000A401642D852D0E94F506811140C1F090AA
:104E7000E001960128193909FF2009F4FDC080914D
:104E8000E301982F907F2A3A310508F0D5C0F80148
:104E90002181911184C0FE2C42121FC09081951176
:104EA0001CC04091E4015091E501268137814217F1
:104EB000530799F4E11011C08F7080618093E30172
:104EC000C5010E94FA1E8091E301D80115968C93CA
:104ED0008F2D2D96E0E10C947F36A601672D862D4F
:104EE0000E94F506D82E21E02E25811120E020FF1A
:104EF00018C04E2D672D862D0E94AC0C882389F09A
:104F00008091280380FF0DC08EED91E00E94FA1E73
:104F100088E0EEEDF1E0DF011D928A95E9F7F12CD2
:104F2000D7CF81E08E25D11080E0B82FB170DB2E75
:104F300080FF2CC04E2D672D862D0E94AC0CC82EF4
:104F4000811124C069867A8689859A850E942912F2
:104F5000292F22952F70903248F0225F2F70223037
:104F600068F0C8010E94FA1ECD2C0EC09F7011F08F
:104F7000882351F0805E883038F0F3CF9F70D1F3F2
:104F8000F8019581907FB1F7FC2CA2CFEE2009F4B7
:104F90009FCF8091E30181608093E301C0CF4212F3
:104FA0001BC09081951118C04091E4015091E5011A
:104FB000268137814217530779F4E1100DC08583AC
:104FC000C8010E94FA1E88E0F801AEEDB1E0019040
:104FD0000D928A95E1F77CCFC8010E943812882390
:104FE00039F1EE2029F18091E3018032A0F0209187
:104FF000DE013091DF013A8329831B82DD82CC827E
:105000008E838091E4019091E50198878F83CE0192
:1050100001960E94FA1E88E0F801AEEDB1E0019021
:105020000D928A95E1F70E94A426FF24F39450CFB5
:10503000C8010E94FA1EF9CF992309F465CFF8013F
:1050400091819411C9CF90819511C6CF4091E4010F
:105050005091E501268137814217530709F0BCCFF3
:10506000E110BACF8583C8010E94FA1E88E0D501FD
:105070001D928A95E9F72CCF2A3A3105B8F7FE2C14
:10508000EE20B1F2F8018181841123C08081851165
:1050900020C02091E4013091E50186819781281795
:1050A0003907B9F48091280382FD8DCF8091E30107
:1050B00080FD89CF982F907F09F485CF8583903F1D
:1050C00009F47ECF982F907F905F8F70892B858316
:1050D00077CFC8010E94381281119DCF8091E301E2
:1050E00081608093E301C8010E94FA1EF1CEEE2098
:1050F00009F49ECFC8010E943812F82E882309F4C3
:1051000097CF88E0F801AEEDB1E001900D928A955D
:10511000E1F78091DE019091DF010E9429120E9447
:10512000A426D6CEA0E1B0E0E8E9F8E20C946D3612
:1051300029873A874B875C876D877E878F87988B17
:10514000CE0109960E940527811136C088E0FE0134
:105150003996DE01119601900D928A95E1F7E98466
:10516000FA840C851D85A8016F2D8E2D0E94F506F1
:10517000811122C0A091E601B0E0CD0101968770B7
:105180009927209127022817190601F1E982FA824E
:105190001D830C8393E0AA0FBB1F9A95E1F7A951D9
:1051A000BE4F98E0FE01319601900D929A95E1F77D
:1051B0008093E6010E94CB0C809127029091E6013A
:1051C000891312C06096E6E00C9489360E94A316FB
:1051D0001092E6011092270288E0EEEDF1E0DF0187
:1051E0001D928A95E9F7E8CFB8E08B9FC0011124A2
:1051F00089519E4F0E940527882321F38091270221
:1052000090E001968770992780932702D5CFEF927F
:10521000FF920F931F93CF93DF93809136038823E0
:1052200061F0C09135038CE0F82E80913603C817E9
:1052300048F01092360310923503CDB7DEB7E6E0A2
:105240000C948936EE24E394EC0EE09235030C2F97
:1052500010E0CF9DE0011124C95CDC4F4B815C81E3
:10526000698188810E94F50681111DC08E819F8110
:10527000892B21F488859985019651F428813981FB
:105280004A815B816C817D818E819F810E94922801
:10529000F09EF001F19EF00D1124E95CFC4F1482A8
:1052A000138210921F04CE2DC0CF1092DA031092F9
:1052B000D903109225018091D8038093D7030E94CF
:1052C0002C070E9407290895B0E0A0E0EAE6F9E281
:1052D0000C946236C091D70397E0892E01E010E06C
:1052E0002CE0322E3EEF932E442443948091D80339
:1052F0008C1309C00E9407290E942C07CDB7DEB786
:10530000E1E10C947E36D0E0FE01EE0FFF1FE15389
:10531000FC4F80819181889ED001899EB00D11241F
:10532000A956BC4F14962C911497211158C0509037
:105330003603E7E3F3E030E020E0712C5D01251552
:1053400008F04BC0E284F384D501CD90DC906FEF80
:105350007FEF612C462D50E0DA01AA0FBB1FAC0D88
:10536000BD1D0D90BC91A02D109731F0EA16FB06E3
:1053700009F4BA016394EECF6F3F7607A9F1D80123
:1053800002C0AA0FBB1F6A95E2F77A2AB801062C61
:1053900002C0660F771F0A94E2F7AB014150510932
:1053A00074161506F9F4329EF001339EF00D1124A7
:1053B000E95CFC4F889ED001899EB00D1124A9564E
:1053C000BC4F12962D913C91139737832683908280
:1053D00091829187808715964C920E9400072196B2
:1053E000C37084CF148213822F5F3F4F3C96A7CFA8
:1053F000A9E1B0E0EEEFF9E20C946136242F498B7D
:10540000952F5A8B6B8B7C8B8D8B4C895D89692F8B
:10541000822F0E94F506811109C08091CA019091E6
:10542000CB0101969093CB018093CA018B898111A6
:1054300010921F041E861F86188A85E0FE01719651
:10544000DE01199601900D928A95E1F78091E603AD
:1054500082FF1EC080910D0390910E03892BC1F035
:105460000E94B0062091280230912902821B930BE2
:1054700020910D0330910E038217930720F0809145
:105480002A0282FFDFC10E94300C81110E94020CAF
:105490004C855D856A8589850E94F506811111C05C
:1054A00061E0CE0109960E9478126C018B8527EF8E
:1054B000C2162CE5D20681F4882321F181E0809385
:1054C000250129853A854B855C856D857E858F858F
:1054D00098890E949228C6C038EFC3163CE5D306CF
:1054E00029F4882379F00E945529EBCF49EFC4169F
:1054F0004CE5D40639F4882329F0809125018111E7
:10550000F2CFDCCF07E913E0512CB12CA12C2224DF
:105510002394312C2EEF422EF801408151818824B2
:105520008A94982C20E0822F90E0FC01EE0FFF1F60
:10553000E40FF51F608171816115710531F0C616A8
:10554000D70609F44C012F5FEECFF12CFFEF8F1639
:105550009F0609F449C0F8014481F09025018F2D80
:10556000411180E0F82FF170FF2EF801E58086816F
:105570009B85992309F4F8C0FF2009F4F5C06090D9
:10558000210370902203E11013C0A101082C01C077
:10559000440F0A94EAF7842B868380913303909119
:1055A00034038615970520F4709234036092330318
:1055B000C10102C0880F991F2A95E2F70197F801EF
:1055C00026812817190681F48091D9039091DA0376
:1055D000009709F44BC00E94A1066816790608F0EE
:1055E00045C021E0F80124835F28FFEFAF1ABF0A0E
:1055F000095F1F4F28E0A216B10409F08DCF8B85FB
:10560000882309F40AC1552009F407C10E94B00695
:105610009093DA038093D90380913603883010F594
:1056200091E0980F9093360398E0FE013996DE01E1
:10563000119601900D929A95E1F73CE0839FC0018D
:105640001124895C9C4F28E0FE013196DC01019019
:105650000D922A95E1F72FEF3FEFFC01318720876C
:10566000D386C2866996E2E10C947D368091D70399
:105670005091D803982FF0E0E0E0851314C0909388
:10568000D703E017F10709F4AFCF90E0FC01EE0F6C
:10569000FF1FE153FC4FB182A082019683709927CE
:1056A0008093D803A1CF682E712CF301EE0FFF1F5A
:1056B000E153FC4F2081318147E0429FD001439F5D
:1056C000B00D1124A956BC4F6D917C911197798F23
:1056D000688F40E020E030E0E32FF0E0EE0FFF1FA6
:1056E000688D798DE60FF71F808091808114910479
:1056F000E1F0F8010190F081E02DFF8BEE8B20E0CE
:1057000005C08616970609F44F2D2F5FE22FF0E0B3
:10571000EE0FFF1F6E897F89E60FF71F6081718191
:105720006115710571F73F5FD7CF4423D1F0F801C0
:10573000231708F0FD0121E024830E171F0721F431
:105740009093D703F42E50CF891305C0AE17BF072F
:1057500011F49F5F937093012F5F3F4F822F8370EF
:105760008CCFF0E0E0E0F7CF90E0E11020C0B10195
:1057700002C0660F771F2A95E2F79B01215031097D
:105780002817390731F4442309F445C0C5010E94A4
:105790000007C101082C01C0880F0A94EAF7982F6E
:1057A0009095F801868189238683FE2C1DCFAC015C
:1057B000082C02C0559547950A94E2F79C012150A8
:1057C000310982239323892B11F540FF20C0F80172
:1057D00082819381892BC1F01B821C821D821E82D3
:1057E00049824A820E94B0068160582F9D838C8333
:1057F000F801828193818F83988729813A814B8137
:105800006D817E810E949228F8011582C2CFF42F0B
:10581000F170EF2EBECFEF2CBCCF9091D7038091CB
:10582000D803981731F00E946429552009F449CE15
:1058300019CF0E9407291092DA031092D9030E940F
:105840002C07F3CF82E00E944A161DCEA5E0B0E0FF
:10585000ECE2FCE20C9471369093E7028093E6024E
:10586000811520E2920730F40E945C1B2596E2E04D
:105870000C948D3680EF89838A831B820E94B00648
:105880008160782F9D838C8349815A816B818D81C2
:105890000E94F829EBCFA5E0B0E0E1E5FCE20C9432
:1058A00071369093E7028093E602811520E2920719
:1058B00030F40E94AC1D2596E2E00C948D3680EF0A
:1058C00089838A8381E08B830E94B0068160782F70
:1058D0009D838C8349815A816B818D810E94F82937
:1058E000EACF90E080E00E94F536883E9E4F19F4A2
:1058F0000E948612089580E008951F920F920FB6BD
:105900000F9211242F933F934F935F936F937F9345
:105910008F939F93AF93BF93CF93DF93EF93FF93B7
:10592000D091E900DF708091EC00C82FC17080FD3C
:10593000C0E81092E9008091F000877F8093F0002A
:1059400078940E94B9161092E9008091F000886066
:105950008093F000CD2BCF70C093E900FF91EF91C1
:10596000DF91CF91BF91AF919F918F917F916F9177
:105970005F914F913F912F910F900FBE0F901F900D
:1059800018951F920F920FB60F9211242F933F93E9
:105990004F935F936F937F938F939F93AF93BF9337
:1059A000EF93FF938091E10082FF09C08091E200B4
:1059B00082FF05C08091E1008B7F8093E1008091A0
:1059C000DA0080FF24C08091D80080FF20C0809141
:1059D000DA008E7F8093DA008091D90080FFA3C027
:1059E00080E189BD82E189BD09B400FEFDCF81E07F
:1059F00080931D048091EA03811109C00E94F7047D
:105A00000E94E8058091E20084608093E20080912A
:105A1000E10080FF17C08091E20080FF13C08091F9
:105A2000E2008E7F8093E2008091E20080618093AB
:105A3000E2008091D80080628093D80019BC85E094
:105A400080931D048091E10084FF31C08091E200C9
:105A500084FF2DC080E189BD82E189BD09B400FECB
:105A6000FDCF8091D8008F7D8093D8008091E10098
:105A70008F7E8093E1008091E2008F7E8093E20030
:105A80008091E20081608093E20080911404882379
:105A900009F44FC084E080931D040E94A3160E9465
:105AA000E8060E9484110E949C1380911D0480913D
:105AB000E10083FF27C08091E20083FF23C0809133
:105AC000E100877F8093E10082E080931D041092C3
:105AD00014048091E1008E7F8093E1008091E200C8
